{
  "_format": "hh-sol-artifact-1",
  "contractName": "Voting",
  "sourceName": "contracts/Voting.sol",
  "abi": [
    {
      "inputs": [
        {
          "internalType": "string[]",
          "name": "_candidateNames",
          "type": "string[]"
        },
        {
          "internalType": "uint256",
          "name": "_durationInMinutes",
          "type": "uint256"
        }
      ],
      "stateMutability": "nonpayable",
      "type": "constructor"
    },
    {
      "inputs": [
        {
          "internalType": "string",
          "name": "_name",
          "type": "string"
        }
      ],
      "name": "addCandidate",
      "outputs": [],
      "stateMutability": "nonpayable",
      "type": "function"
    },
    {
      "inputs": [
        {
          "internalType": "uint256",
          "name": "",
          "type": "uint256"
        }
      ],
      "name": "candidates",
      "outputs": [
        {
          "internalType": "string",
          "name": "name",
          "type": "string"
        },
        {
          "internalType": "uint256",
          "name": "voteCount",
          "type": "uint256"
        }
      ],
      "stateMutability": "view",
      "type": "function"
    },
    {
      "inputs": [],
      "name": "getAllVotesOfCandidates",
      "outputs": [
        {
          "components": [
            {
              "internalType": "string",
              "name": "name",
              "type": "string"
            },
            {
              "internalType": "uint256",
              "name": "voteCount",
              "type": "uint256"
            }
          ],
          "internalType": "struct Voting.Candidate[]",
          "name": "",
          "type": "tuple[]"
        }
      ],
      "stateMutability": "view",
      "type": "function"
    },
    {
      "inputs": [],
      "name": "getRemainingTime",
      "outputs": [
        {
          "internalType": "uint256",
          "name": "",
          "type": "uint256"
        }
      ],
      "stateMutability": "view",
      "type": "function"
    },
    {
      "inputs": [],
      "name": "getVotingStatus",
      "outputs": [
        {
          "internalType": "bool",
          "name": "",
          "type": "bool"
        }
      ],
      "stateMutability": "view",
      "type": "function"
    },
    {
      "inputs": [
        {
          "internalType": "uint256",
          "name": "_candidateIndex",
          "type": "uint256"
        }
      ],
      "name": "vote",
      "outputs": [],
      "stateMutability": "nonpayable",
      "type": "function"
    },
    {
      "inputs": [
        {
          "internalType": "address",
          "name": "",
          "type": "address"
        }
      ],
      "name": "voters",
      "outputs": [
        {
          "internalType": "bool",
          "name": "",
          "type": "bool"
        }
      ],
      "stateMutability": "view",
      "type": "function"
    },
    {
      "inputs": [],
      "name": "votingEnd",
      "outputs": [
        {
          "internalType": "uint256",
          "name": "",
          "type": "uint256"
        }
      ],
      "stateMutability": "view",
      "type": "function"
    },
    {
      "inputs": [],
      "name": "votingStart",
      "outputs": [
        {
          "internalType": "uint256",
          "name": "",
          "type": "uint256"
        }
      ],
      "stateMutability": "view",
      "type": "function"
    }
  ],
  "bytecode": "0x60806040523480156200001157600080fd5b506040516200196038038062001960833981810160405281019062000037919062000411565b60005b8251811015620000d4576000604051806040016040528085848151811062000067576200006662000477565b5b60200260200101518152602001600081525090806001815401808255809150506001900390600052602060002090600202016000909190919091506000820151816000019081620000b99190620006e7565b5060208201518160010155505080806001019150506200003a565b5033600160006101000a81548173ffffffffffffffffffffffffffffffffffffffff021916908373ffffffffffffffffffffffffffffffffffffffff16021790555042600381905550603c816200012c9190620007fd565b4262000139919062000848565b600481905550505062000883565b6000604051905090565b600080fd5b600080fd5b600080fd5b6000601f19601f8301169050919050565b7f4e487b7100000000000000000000000000000000000000000000000000000000600052604160045260246000fd5b620001ab8262000160565b810181811067ffffffffffffffff82111715620001cd57620001cc62000171565b5b80604052505050565b6000620001e262000147565b9050620001f08282620001a0565b919050565b600067ffffffffffffffff82111562000213576200021262000171565b5b602082029050602081019050919050565b600080fd5b600080fd5b600067ffffffffffffffff8211156200024c576200024b62000171565b5b620002578262000160565b9050602081019050919050565b60005b838110156200028457808201518184015260208101905062000267565b60008484015250505050565b6000620002a7620002a1846200022e565b620001d6565b905082815260208101848484011115620002c657620002c562000229565b5b620002d384828562000264565b509392505050565b600082601f830112620002f357620002f26200015b565b5b81516200030584826020860162000290565b91505092915050565b6000620003256200031f84620001f5565b620001d6565b905080838252602082019050602084028301858111156200034b576200034a62000224565b5b835b818110156200039957805167ffffffffffffffff8111156200037457620003736200015b565b5b808601620003838982620002db565b855260208501945050506020810190506200034d565b5050509392505050565b600082601f830112620003bb57620003ba6200015b565b5b8151620003cd8482602086016200030e565b91505092915050565b6000819050919050565b620003eb81620003d6565b8114620003f757600080fd5b50565b6000815190506200040b81620003e0565b92915050565b600080604083850312156200042b576200042a62000151565b5b600083015167ffffffffffffffff8111156200044c576200044b62000156565b5b6200045a85828601620003a3565b92505060206200046d85828601620003fa565b9150509250929050565b7f4e487b7100000000000000000000000000000000000000000000000000000000600052603260045260246000fd5b600081519050919050565b7f4e487b7100000000000000000000000000000000000000000000000000000000600052602260045260246000fd5b60006002820490506001821680620004f957607f821691505b6020821081036200050f576200050e620004b1565b5b50919050565b60008190508160005260206000209050919050565b60006020601f8301049050919050565b600082821b905092915050565b600060088302620005797fffffffffffffffffffffffffffffffffffffffffffffffffffffffffffffffff826200053a565b6200058586836200053a565b95508019841693508086168417925050509392505050565b6000819050919050565b6000620005c8620005c2620005bc84620003d6565b6200059d565b620003d6565b9050919050565b6000819050919050565b620005e483620005a7565b620005fc620005f382620005cf565b84845462000547565b825550505050565b600090565b6200061362000604565b62000620818484620005d9565b505050565b5b8181101562000648576200063c60008262000609565b60018101905062000626565b5050565b601f8211156200069757620006618162000515565b6200066c846200052a565b810160208510156200067c578190505b620006946200068b856200052a565b83018262000625565b50505b505050565b600082821c905092915050565b6000620006bc600019846008026200069c565b1980831691505092915050565b6000620006d78383620006a9565b9150826002028217905092915050565b620006f282620004a6565b67ffffffffffffffff8111156200070e576200070d62000171565b5b6200071a8254620004e0565b620007278282856200064c565b600060209050601f8311600181146200075f57600084156200074a578287015190505b620007568582620006c9565b865550620007c6565b601f1984166200076f8662000515565b60005b82811015620007995784890151825560018201915060208501945060208101905062000772565b86831015620007b95784890151620007b5601f891682620006a9565b8355505b6001600288020188555050505b505050505050565b7f4e487b7100000000000000000000000000000000000000000000000000000000600052601160045260246000fd5b60006200080a82620003d6565b91506200081783620003d6565b92508282026200082781620003d6565b91508282048414831517620008415762000840620007ce565b5b5092915050565b60006200085582620003d6565b91506200086283620003d6565b92508282019050808211156200087d576200087c620007ce565b5b92915050565b6110cd80620008936000396000f3fe608060405234801561001057600080fd5b50600436106100935760003560e01c8063581c281c11610066578063581c281c1461011f57806385a386351461013d57806390a9ab901461015b578063a3ec138d14610179578063efb98bcf146101a957610093565b80630121b93f14610098578063101158af146100b45780633477ee2e146100d2578063462e91ec14610103575b600080fd5b6100b260048036038101906100ad91906106a5565b6101c7565b005b6100bc610331565b6040516100c991906106e1565b60405180910390f35b6100ec60048036038101906100e791906106a5565b610337565b6040516100fa92919061078c565b60405180910390f35b61011d600480360381019061011891906108f1565b6103f3565b005b6101276104b3565b6040516101349190610955565b60405180910390f35b6101456104cd565b60405161015291906106e1565b60405180910390f35b6101636104d3565b6040516101709190610ac8565b60405180910390f35b610193600480360381019061018e9190610b48565b6105ce565b6040516101a09190610955565b60405180910390f35b6101b16105ee565b6040516101be91906106e1565b60405180910390f35b600260003373ffffffffffffffffffffffffffffffffffffffff1673ffffffffffffffffffffffffffffffffffffffff16815260200190815260200160002060009054906101000a900460ff1615610254576040517f08c379a000000000000000000000000000000000000000000000000000000000815260040161024b90610be7565b60405180910390fd5b600080549050811061029b576040517f08c379a000000000000000000000000000000000000000000000000000000000815260040161029290610c53565b60405180910390fd5b600081815481106102af576102ae610c73565b5b906000526020600020906002020160010160008154809291906102d190610cd1565b91905055506001600260003373ffffffffffffffffffffffffffffffffffffffff1673ffffffffffffffffffffffffffffffffffffffff16815260200190815260200160002060006101000a81548160ff02191690831515021790555050565b60035481565b6000818154811061034757600080fd5b906000526020600020906002020160009150905080600001805461036a90610d48565b80601f016020809104026020016040519081016040528092919081815260200182805461039690610d48565b80156103e35780601f106103b8576101008083540402835291602001916103e3565b820191906000526020600020905b8154815290600101906020018083116103c657829003601f168201915b5050505050908060010154905082565b600160009054906101000a900473ffffffffffffffffffffffffffffffffffffffff1673ffffffffffffffffffffffffffffffffffffffff163373ffffffffffffffffffffffffffffffffffffffff161461044d57600080fd5b600060405180604001604052808381526020016000815250908060018154018082558091505060019003906000526020600020906002020160009091909190915060008201518160000190816104a39190610f25565b5060208201518160010155505050565b600060035442101580156104c8575060045442105b905090565b60045481565b60606000805480602002602001604051908101604052809291908181526020016000905b828210156105c5578382906000526020600020906002020160405180604001604052908160008201805461052a90610d48565b80601f016020809104026020016040519081016040528092919081815260200182805461055690610d48565b80156105a35780601f10610578576101008083540402835291602001916105a3565b820191906000526020600020905b81548152906001019060200180831161058657829003601f168201915b50505050508152602001600182015481525050815260200190600101906104f7565b50505050905090565b60026020528060005260406000206000915054906101000a900460ff1681565b6000600354421015610635576040517f08c379a000000000000000000000000000000000000000000000000000000000815260040161062c90611043565b60405180910390fd5b60045442106106475760009050610658565b426004546106559190611063565b90505b90565b6000604051905090565b600080fd5b600080fd5b6000819050919050565b6106828161066f565b811461068d57600080fd5b50565b60008135905061069f81610679565b92915050565b6000602082840312156106bb576106ba610665565b5b60006106c984828501610690565b91505092915050565b6106db8161066f565b82525050565b60006020820190506106f660008301846106d2565b92915050565b600081519050919050565b600082825260208201905092915050565b60005b8381101561073657808201518184015260208101905061071b565b60008484015250505050565b6000601f19601f8301169050919050565b600061075e826106fc565b6107688185610707565b9350610778818560208601610718565b61078181610742565b840191505092915050565b600060408201905081810360008301526107a68185610753565b90506107b560208301846106d2565b9392505050565b600080fd5b600080fd5b7f4e487b7100000000000000000000000000000000000000000000000000000000600052604160045260246000fd5b6107fe82610742565b810181811067ffffffffffffffff8211171561081d5761081c6107c6565b5b80604052505050565b600061083061065b565b905061083c82826107f5565b919050565b600067ffffffffffffffff82111561085c5761085b6107c6565b5b61086582610742565b9050602081019050919050565b82818337600083830152505050565b600061089461088f84610841565b610826565b9050828152602081018484840111156108b0576108af6107c1565b5b6108bb848285610872565b509392505050565b600082601f8301126108d8576108d76107bc565b5b81356108e8848260208601610881565b91505092915050565b60006020828403121561090757610906610665565b5b600082013567ffffffffffffffff8111156109255761092461066a565b5b610931848285016108c3565b91505092915050565b60008115159050919050565b61094f8161093a565b82525050565b600060208201905061096a6000830184610946565b92915050565b600081519050919050565b600082825260208201905092915050565b6000819050602082019050919050565b600082825260208201905092915050565b60006109b8826106fc565b6109c2818561099c565b93506109d2818560208601610718565b6109db81610742565b840191505092915050565b6109ef8161066f565b82525050565b60006040830160008301518482036000860152610a1282826109ad565b9150506020830151610a2760208601826109e6565b508091505092915050565b6000610a3e83836109f5565b905092915050565b6000602082019050919050565b6000610a5e82610970565b610a68818561097b565b935083602082028501610a7a8561098c565b8060005b85811015610ab65784840389528151610a978582610a32565b9450610aa283610a46565b925060208a01995050600181019050610a7e565b50829750879550505050505092915050565b60006020820190508181036000830152610ae28184610a53565b905092915050565b600073ffffffffffffffffffffffffffffffffffffffff82169050919050565b6000610b1582610aea565b9050919050565b610b2581610b0a565b8114610b3057600080fd5b50565b600081359050610b4281610b1c565b92915050565b600060208284031215610b5e57610b5d610665565b5b6000610b6c84828501610b33565b91505092915050565b7f596f75206861766520616c726561647920766f7465642c20596f752063616e2060008201527f6e6f7420766f746520616761696e2e0000000000000000000000000000000000602082015250565b6000610bd1602f83610707565b9150610bdc82610b75565b604082019050919050565b60006020820190508181036000830152610c0081610bc4565b9050919050565b7f496e76616c69642063616e64696461746520696e6465782e0000000000000000600082015250565b6000610c3d601883610707565b9150610c4882610c07565b602082019050919050565b60006020820190508181036000830152610c6c81610c30565b9050919050565b7f4e487b7100000000000000000000000000000000000000000000000000000000600052603260045260246000fd5b7f4e487b7100000000000000000000000000000000000000000000000000000000600052601160045260246000fd5b6000610cdc8261066f565b91507fffffffffffffffffffffffffffffffffffffffffffffffffffffffffffffffff8203610d0e57610d0d610ca2565b5b600182019050919050565b7f4e487b7100000000000000000000000000000000000000000000000000000000600052602260045260246000fd5b60006002820490506001821680610d6057607f821691505b602082108103610d7357610d72610d19565b5b50919050565b60008190508160005260206000209050919050565b60006020601f8301049050919050565b600082821b905092915050565b600060088302610ddb7fffffffffffffffffffffffffffffffffffffffffffffffffffffffffffffffff82610d9e565b610de58683610d9e565b95508019841693508086168417925050509392505050565b6000819050919050565b6000610e22610e1d610e188461066f565b610dfd565b61066f565b9050919050565b6000819050919050565b610e3c83610e07565b610e50610e4882610e29565b848454610dab565b825550505050565b600090565b610e65610e58565b610e70818484610e33565b505050565b5b81811015610e9457610e89600082610e5d565b600181019050610e76565b5050565b601f821115610ed957610eaa81610d79565b610eb384610d8e565b81016020851015610ec2578190505b610ed6610ece85610d8e565b830182610e75565b50505b505050565b600082821c905092915050565b6000610efc60001984600802610ede565b1980831691505092915050565b6000610f158383610eeb565b9150826002028217905092915050565b610f2e826106fc565b67ffffffffffffffff811115610f4757610f466107c6565b5b610f518254610d48565b610f5c828285610e98565b600060209050601f831160018114610f8f5760008415610f7d578287015190505b610f878582610f09565b865550610fef565b601f198416610f9d86610d79565b60005b82811015610fc557848901518255600182019150602085019450602081019050610fa0565b86831015610fe25784890151610fde601f891682610eeb565b8355505b6001600288020188555050505b505050505050565b7f566f74696e6720686173206e6f742073746172746564207965742e0000000000600082015250565b600061102d601b83610707565b915061103882610ff7565b602082019050919050565b6000602082019050818103600083015261105c81611020565b9050919050565b600061106e8261066f565b91506110798361066f565b925082820390508181111561109157611090610ca2565b5b9291505056fea26469706673582212207c89bce6429ccbd3db6dcd97523ce326670bf86aebfdea5f41dd56e22223da4b64736f6c63430008180033",
  "linkReferences": {},
  "deployedLinkReferences": {}
}